{
  "_format": "hh-sol-artifact-1",
  "contractName": "Medamex",
  "sourceName": "contracts/Medamex.sol",
  "abi": [
    {
      "inputs": [],
      "stateMutability": "nonpayable",
      "type": "constructor"
    },
    {
      "anonymous": false,
      "inputs": [
        {
          "indexed": true,
          "internalType": "address",
          "name": "hospital",
          "type": "address"
        },
        {
          "indexed": false,
          "internalType": "string",
          "name": "name",
          "type": "string"
        },
        {
          "indexed": false,
          "internalType": "string",
          "name": "physicalAddress",
          "type": "string"
        },
        {
          "indexed": false,
          "internalType": "string",
          "name": "mapLink",
          "type": "string"
        }
      ],
      "name": "HospitalRegistered",
      "type": "event"
    },
    {
      "anonymous": false,
      "inputs": [
        {
          "indexed": true,
          "internalType": "address",
          "name": "hospital",
          "type": "address"
        }
      ],
      "name": "HospitalRevoked",
      "type": "event"
    },
    {
      "anonymous": false,
      "inputs": [
        {
          "indexed": true,
          "internalType": "address",
          "name": "patient",
          "type": "address"
        },
        {
          "indexed": false,
          "internalType": "string",
          "name": "newCID",
          "type": "string"
        }
      ],
      "name": "PatientCIDUpdated",
      "type": "event"
    },
    {
      "anonymous": false,
      "inputs": [
        {
          "indexed": true,
          "internalType": "address",
          "name": "patient",
          "type": "address"
        },
        {
          "indexed": false,
          "internalType": "bool",
          "name": "isRegistered",
          "type": "bool"
        },
        {
          "indexed": false,
          "internalType": "string",
          "name": "folderCID",
          "type": "string"
        }
      ],
      "name": "PatientRegistered",
      "type": "event"
    },
    {
      "anonymous": false,
      "inputs": [
        {
          "indexed": true,
          "internalType": "address",
          "name": "patient",
          "type": "address"
        }
      ],
      "name": "PatientUnregistered",
      "type": "event"
    },
    {
      "inputs": [
        {
          "internalType": "address",
          "name": "",
          "type": "address"
        }
      ],
      "name": "admins",
      "outputs": [
        {
          "internalType": "bool",
          "name": "",
          "type": "bool"
        }
      ],
      "stateMutability": "view",
      "type": "function"
    },
    {
      "inputs": [
        {
          "internalType": "address",
          "name": "_hospital",
          "type": "address"
        }
      ],
      "name": "getHospitalDetails",
      "outputs": [
        {
          "internalType": "bool",
          "name": "isRegistered",
          "type": "bool"
        },
        {
          "internalType": "string",
          "name": "name",
          "type": "string"
        },
        {
          "internalType": "string",
          "name": "physicalAddress",
          "type": "string"
        },
        {
          "internalType": "string",
          "name": "mapLink",
          "type": "string"
        }
      ],
      "stateMutability": "view",
      "type": "function"
    },
    {
      "inputs": [
        {
          "internalType": "address",
          "name": "_patient",
          "type": "address"
        }
      ],
      "name": "getPatientCID",
      "outputs": [
        {
          "internalType": "string",
          "name": "",
          "type": "string"
        }
      ],
      "stateMutability": "view",
      "type": "function"
    },
    {
      "inputs": [
        {
          "internalType": "address",
          "name": "_address",
          "type": "address"
        }
      ],
      "name": "isAdmin",
      "outputs": [
        {
          "internalType": "bool",
          "name": "",
          "type": "bool"
        }
      ],
      "stateMutability": "view",
      "type": "function"
    },
    {
      "inputs": [
        {
          "internalType": "address",
          "name": "_hospital",
          "type": "address"
        }
      ],
      "name": "isRegisteredHospital",
      "outputs": [
        {
          "internalType": "bool",
          "name": "",
          "type": "bool"
        }
      ],
      "stateMutability": "view",
      "type": "function"
    },
    {
      "inputs": [],
      "name": "patientCount",
      "outputs": [
        {
          "internalType": "uint256",
          "name": "",
          "type": "uint256"
        }
      ],
      "stateMutability": "view",
      "type": "function"
    },
    {
      "inputs": [
        {
          "internalType": "address",
          "name": "",
          "type": "address"
        }
      ],
      "name": "patientFolderCID",
      "outputs": [
        {
          "internalType": "string",
          "name": "",
          "type": "string"
        }
      ],
      "stateMutability": "view",
      "type": "function"
    },
    {
      "inputs": [
        {
          "internalType": "address",
          "name": "_hospital",
          "type": "address"
        },
        {
          "internalType": "string",
          "name": "_name",
          "type": "string"
        },
        {
          "internalType": "string",
          "name": "_physicalAddress",
          "type": "string"
        },
        {
          "internalType": "string",
          "name": "_mapLink",
          "type": "string"
        }
      ],
      "name": "registerHospital",
      "outputs": [],
      "stateMutability": "nonpayable",
      "type": "function"
    },
    {
      "inputs": [
        {
          "internalType": "address",
          "name": "_patient",
          "type": "address"
        }
      ],
      "name": "registerPatient",
      "outputs": [],
      "stateMutability": "nonpayable",
      "type": "function"
    },
    {
      "inputs": [
        {
          "internalType": "address",
          "name": "",
          "type": "address"
        }
      ],
      "name": "registeredHospitals",
      "outputs": [
        {
          "internalType": "bool",
          "name": "isRegistered",
          "type": "bool"
        },
        {
          "internalType": "string",
          "name": "name",
          "type": "string"
        },
        {
          "internalType": "string",
          "name": "physicalAddress",
          "type": "string"
        },
        {
          "internalType": "string",
          "name": "mapLink",
          "type": "string"
        }
      ],
      "stateMutability": "view",
      "type": "function"
    },
    {
      "inputs": [
        {
          "internalType": "address",
          "name": "",
          "type": "address"
        }
      ],
      "name": "registeredPatients",
      "outputs": [
        {
          "internalType": "bool",
          "name": "",
          "type": "bool"
        }
      ],
      "stateMutability": "view",
      "type": "function"
    },
    {
      "inputs": [
        {
          "internalType": "address",
          "name": "_hospital",
          "type": "address"
        }
      ],
      "name": "revokeHospital",
      "outputs": [],
      "stateMutability": "nonpayable",
      "type": "function"
    },
    {
      "inputs": [
        {
          "internalType": "address",
          "name": "_patient",
          "type": "address"
        }
      ],
      "name": "unregisterPatient",
      "outputs": [],
      "stateMutability": "nonpayable",
      "type": "function"
    },
    {
      "inputs": [
        {
          "internalType": "address",
          "name": "_patient",
          "type": "address"
        },
        {
          "internalType": "string",
          "name": "_newCID",
          "type": "string"
        }
      ],
      "name": "updatePatientCID",
      "outputs": [],
      "stateMutability": "nonpayable",
      "type": "function"
    }
  ],
  "bytecode": "0x6080604052348015600f57600080fd5b506001600360003373ffffffffffffffffffffffffffffffffffffffff1673ffffffffffffffffffffffffffffffffffffffff16815260200190815260200160002060006101000a81548160ff02191690831515021790555061222b806100776000396000f3fe608060405234801561001057600080fd5b50600436106100ea5760003560e01c8063429b62e51161008c5780639cdaaad8116100665780639cdaaad814610299578063a0303c41146102c9578063c3856ebe146102e7578063efd1266714610303576100ea565b8063429b62e51461020957806353f17fd4146102395780636bd9110e14610269576100ea565b806320b6559f116100c857806320b6559f1461015a57806324d7806c1461017657806326fc9787146101a657806338cb99ff146101d9576100ea565b80630bb307a8146100ef5780631388c519146101225780631def195b1461013e575b600080fd5b610109600480360381019061010491906116a8565b61031f565b6040516101199493929190611780565b60405180910390f35b61013c600480360381019061013791906116a8565b6105ad565b005b610158600480360381019061015391906116a8565b61085f565b005b610174600480360381019061016f919061190f565b610a82565b005b610190600480360381019061018b91906116a8565b610cbe565b60405161019d91906119ca565b60405180910390f35b6101c060048036038101906101bb91906116a8565b610d14565b6040516101d09493929190611780565b60405180910390f35b6101f360048036038101906101ee91906116a8565b610ee9565b60405161020091906119ca565b60405180910390f35b610223600480360381019061021e91906116a8565b610f42565b60405161023091906119ca565b60405180910390f35b610253600480360381019061024e91906116a8565b610f62565b60405161026091906119e5565b60405180910390f35b610283600480360381019061027e91906116a8565b611002565b60405161029091906119e5565b60405180910390f35b6102b360048036038101906102ae91906116a8565b611241565b6040516102c091906119ca565b60405180910390f35b6102d1611261565b6040516102de9190611a20565b60405180910390f35b61030160048036038101906102fc9190611a3b565b611267565b005b61031d600480360381019061031891906116a8565b61141d565b005b600060608060606000600260008773ffffffffffffffffffffffffffffffffffffffff1673ffffffffffffffffffffffffffffffffffffffff1681526020019081526020016000206040518060800160405290816000820160009054906101000a900460ff1615151515815260200160018201805461039d90611ac6565b80601f01602080910402602001604051908101604052809291908181526020018280546103c990611ac6565b80156104165780601f106103eb57610100808354040283529160200191610416565b820191906000526020600020905b8154815290600101906020018083116103f957829003601f168201915b5050505050815260200160028201805461042f90611ac6565b80601f016020809104026020016040519081016040528092919081815260200182805461045b90611ac6565b80156104a85780601f1061047d576101008083540402835291602001916104a8565b820191906000526020600020905b81548152906001019060200180831161048b57829003601f168201915b505050505081526020016003820180546104c190611ac6565b80601f01602080910402602001604051908101604052809291908181526020018280546104ed90611ac6565b801561053a5780601f1061050f5761010080835404028352916020019161053a565b820191906000526020600020905b81548152906001019060200180831161051d57829003601f168201915b50505050508152505090508060000151610589576040517f08c379a000000000000000000000000000000000000000000000000000000000815260040161058090611b43565b60405180910390fd5b80600001518160200151826040015183606001519450945094509450509193509193565b600360003373ffffffffffffffffffffffffffffffffffffffff1673ffffffffffffffffffffffffffffffffffffffff16815260200190815260200160002060009054906101000a900460ff16806106515750600260003373ffffffffffffffffffffffffffffffffffffffff1673ffffffffffffffffffffffffffffffffffffffff16815260200190815260200160002060000160009054906101000a900460ff165b610690576040517f08c379a000000000000000000000000000000000000000000000000000000000815260040161068790611bd5565b60405180910390fd5b6000808273ffffffffffffffffffffffffffffffffffffffff1673ffffffffffffffffffffffffffffffffffffffff16815260200190815260200160002060009054906101000a900460ff161561071c576040517f08c379a000000000000000000000000000000000000000000000000000000000815260040161071390611c41565b60405180910390fd5b60016000808373ffffffffffffffffffffffffffffffffffffffff1673ffffffffffffffffffffffffffffffffffffffff16815260200190815260200160002060006101000a81548160ff0219169083151502179055506040518060400160405280600781526020017f70656e64696e6700000000000000000000000000000000000000000000000000815250600160008373ffffffffffffffffffffffffffffffffffffffff1673ffffffffffffffffffffffffffffffffffffffff16815260200190815260200160002090816107f49190611e0d565b506004600081548092919061080890611f0e565b91905055508073ffffffffffffffffffffffffffffffffffffffff167fef63fe82891cb41cb75263a07b7c95dd17c208c197557dfe366c3762db1b0a5060016040516108549190611fa2565b60405180910390a250565b600360003373ffffffffffffffffffffffffffffffffffffffff1673ffffffffffffffffffffffffffffffffffffffff16815260200190815260200160002060009054906101000a900460ff166108eb576040517f08c379a00000000000000000000000000000000000000000000000000000000081526004016108e29061201c565b60405180910390fd5b6000808273ffffffffffffffffffffffffffffffffffffffff1673ffffffffffffffffffffffffffffffffffffffff16815260200190815260200160002060009054906101000a900460ff16610976576040517f08c379a000000000000000000000000000000000000000000000000000000000815260040161096d90612088565b60405180910390fd5b60008060008373ffffffffffffffffffffffffffffffffffffffff1673ffffffffffffffffffffffffffffffffffffffff16815260200190815260200160002060006101000a81548160ff021916908315150217905550600160008273ffffffffffffffffffffffffffffffffffffffff1673ffffffffffffffffffffffffffffffffffffffff1681526020019081526020016000206000610a1891906115d9565b60006004541115610a3c5760046000815480929190610a36906120a8565b91905055505b8073ffffffffffffffffffffffffffffffffffffffff167f321dfd8e9fec8b04dac67b77a1e25aa68539e4d7a212a25a0f8b9960ce429c4960405160405180910390a250565b600360003373ffffffffffffffffffffffffffffffffffffffff1673ffffffffffffffffffffffffffffffffffffffff16815260200190815260200160002060009054906101000a900460ff16610b0e576040517f08c379a0000000000000000000000000000000000000000000000000000000008152600401610b059061201c565b60405180910390fd5b600260008573ffffffffffffffffffffffffffffffffffffffff1673ffffffffffffffffffffffffffffffffffffffff16815260200190815260200160002060000160009054906101000a900460ff1615610b9e576040517f08c379a0000000000000000000000000000000000000000000000000000000008152600401610b959061211d565b60405180910390fd5b604051806080016040528060011515815260200184815260200183815260200182815250600260008673ffffffffffffffffffffffffffffffffffffffff1673ffffffffffffffffffffffffffffffffffffffff16815260200190815260200160002060008201518160000160006101000a81548160ff0219169083151502179055506020820151816001019081610c369190611e0d565b506040820151816002019081610c4c9190611e0d565b506060820151816003019081610c629190611e0d565b509050508373ffffffffffffffffffffffffffffffffffffffff167fd6d67183fa15dc4bba9279bc1f98b35002001823c5861e7b186e726e2403263d848484604051610cb09392919061213d565b60405180910390a250505050565b6000600360008373ffffffffffffffffffffffffffffffffffffffff1673ffffffffffffffffffffffffffffffffffffffff16815260200190815260200160002060009054906101000a900460ff169050919050565b60026020528060005260406000206000915090508060000160009054906101000a900460ff1690806001018054610d4a90611ac6565b80601f0160208091040260200160405190810160405280929190818152602001828054610d7690611ac6565b8015610dc35780601f10610d9857610100808354040283529160200191610dc3565b820191906000526020600020905b815481529060010190602001808311610da657829003601f168201915b505050505090806002018054610dd890611ac6565b80601f0160208091040260200160405190810160405280929190818152602001828054610e0490611ac6565b8015610e515780601f10610e2657610100808354040283529160200191610e51565b820191906000526020600020905b815481529060010190602001808311610e3457829003601f168201915b505050505090806003018054610e6690611ac6565b80601f0160208091040260200160405190810160405280929190818152602001828054610e9290611ac6565b8015610edf5780601f10610eb457610100808354040283529160200191610edf565b820191906000526020600020905b815481529060010190602001808311610ec257829003601f168201915b5050505050905084565b6000600260008373ffffffffffffffffffffffffffffffffffffffff1673ffffffffffffffffffffffffffffffffffffffff16815260200190815260200160002060000160009054906101000a900460ff169050919050565b60036020528060005260406000206000915054906101000a900460ff1681565b60016020528060005260406000206000915090508054610f8190611ac6565b80601f0160208091040260200160405190810160405280929190818152602001828054610fad90611ac6565b8015610ffa5780601f10610fcf57610100808354040283529160200191610ffa565b820191906000526020600020905b815481529060010190602001808311610fdd57829003601f168201915b505050505081565b6060600360003373ffffffffffffffffffffffffffffffffffffffff1673ffffffffffffffffffffffffffffffffffffffff16815260200190815260200160002060009054906101000a900460ff16806110a85750600260003373ffffffffffffffffffffffffffffffffffffffff1673ffffffffffffffffffffffffffffffffffffffff16815260200190815260200160002060000160009054906101000a900460ff165b6110e7576040517f08c379a00000000000000000000000000000000000000000000000000000000081526004016110de90611bd5565b60405180910390fd5b6000808373ffffffffffffffffffffffffffffffffffffffff1673ffffffffffffffffffffffffffffffffffffffff16815260200190815260200160002060009054906101000a900460ff16611172576040517f08c379a000000000000000000000000000000000000000000000000000000000815260040161116990612088565b60405180910390fd5b600160008373ffffffffffffffffffffffffffffffffffffffff1673ffffffffffffffffffffffffffffffffffffffff16815260200190815260200160002080546111bc90611ac6565b80601f01602080910402602001604051908101604052809291908181526020018280546111e890611ac6565b80156112355780601f1061120a57610100808354040283529160200191611235565b820191906000526020600020905b81548152906001019060200180831161121857829003601f168201915b50505050509050919050565b60006020528060005260406000206000915054906101000a900460ff1681565b60045481565b600360003373ffffffffffffffffffffffffffffffffffffffff1673ffffffffffffffffffffffffffffffffffffffff16815260200190815260200160002060009054906101000a900460ff166112f3576040517f08c379a00000000000000000000000000000000000000000000000000000000081526004016112ea9061201c565b60405180910390fd5b6000808373ffffffffffffffffffffffffffffffffffffffff1673ffffffffffffffffffffffffffffffffffffffff16815260200190815260200160002060009054906101000a900460ff1661137e576040517f08c379a0000000000000000000000000000000000000000000000000000000008152600401611375906121d5565b60405180910390fd5b80600160008473ffffffffffffffffffffffffffffffffffffffff1673ffffffffffffffffffffffffffffffffffffffff16815260200190815260200160002090816113ca9190611e0d565b508173ffffffffffffffffffffffffffffffffffffffff167f6f77d04db43bd44d76ba912249773363c5c25792097ed5bd3e044f117ae496e78260405161141191906119e5565b60405180910390a25050565b600360003373ffffffffffffffffffffffffffffffffffffffff1673ffffffffffffffffffffffffffffffffffffffff16815260200190815260200160002060009054906101000a900460ff166114a9576040517f08c379a00000000000000000000000000000000000000000000000000000000081526004016114a09061201c565b60405180910390fd5b600260008273ffffffffffffffffffffffffffffffffffffffff1673ffffffffffffffffffffffffffffffffffffffff16815260200190815260200160002060000160009054906101000a900460ff16611538576040517f08c379a000000000000000000000000000000000000000000000000000000000815260040161152f90611b43565b60405180910390fd5b6000600260008373ffffffffffffffffffffffffffffffffffffffff1673ffffffffffffffffffffffffffffffffffffffff16815260200190815260200160002060000160006101000a81548160ff0219169083151502179055508073ffffffffffffffffffffffffffffffffffffffff167f04caadd35ed8bd43e7fa429ca71999b16e52790034b91f5ca6fff95abc5449e860405160405180910390a250565b5080546115e590611ac6565b6000825580601f106115f75750611616565b601f0160209004906000526020600020908101906116159190611619565b5b50565b5b8082111561163257600081600090555060010161161a565b5090565b6000604051905090565b600080fd5b600080fd5b600073ffffffffffffffffffffffffffffffffffffffff82169050919050565b60006116758261164a565b9050919050565b6116858161166a565b811461169057600080fd5b50565b6000813590506116a28161167c565b92915050565b6000602082840312156116be576116bd611640565b5b60006116cc84828501611693565b91505092915050565b60008115159050919050565b6116ea816116d5565b82525050565b600081519050919050565b600082825260208201905092915050565b60005b8381101561172a57808201518184015260208101905061170f565b60008484015250505050565b6000601f19601f8301169050919050565b6000611752826116f0565b61175c81856116fb565b935061176c81856020860161170c565b61177581611736565b840191505092915050565b600060808201905061179560008301876116e1565b81810360208301526117a78186611747565b905081810360408301526117bb8185611747565b905081810360608301526117cf8184611747565b905095945050505050565b600080fd5b600080fd5b7f4e487b7100000000000000000000000000000000000000000000000000000000600052604160045260246000fd5b61181c82611736565b810181811067ffffffffffffffff8211171561183b5761183a6117e4565b5b80604052505050565b600061184e611636565b905061185a8282611813565b919050565b600067ffffffffffffffff82111561187a576118796117e4565b5b61188382611736565b9050602081019050919050565b82818337600083830152505050565b60006118b26118ad8461185f565b611844565b9050828152602081018484840111156118ce576118cd6117df565b5b6118d9848285611890565b509392505050565b600082601f8301126118f6576118f56117da565b5b813561190684826020860161189f565b91505092915050565b6000806000806080858703121561192957611928611640565b5b600061193787828801611693565b945050602085013567ffffffffffffffff81111561195857611957611645565b5b611964878288016118e1565b935050604085013567ffffffffffffffff81111561198557611984611645565b5b611991878288016118e1565b925050606085013567ffffffffffffffff8111156119b2576119b1611645565b5b6119be878288016118e1565b91505092959194509250565b60006020820190506119df60008301846116e1565b92915050565b600060208201905081810360008301526119ff8184611747565b905092915050565b6000819050919050565b611a1a81611a07565b82525050565b6000602082019050611a356000830184611a11565b92915050565b60008060408385031215611a5257611a51611640565b5b6000611a6085828601611693565b925050602083013567ffffffffffffffff811115611a8157611a80611645565b5b611a8d858286016118e1565b9150509250929050565b7f4e487b7100000000000000000000000000000000000000000000000000000000600052602260045260246000fd5b60006002820490506001821680611ade57607f821691505b602082108103611af157611af0611a97565b5b50919050565b7f486f73706974616c206973206e6f742072656769737465726564000000000000600082015250565b6000611b2d601a836116fb565b9150611b3882611af7565b602082019050919050565b60006020820190508181036000830152611b5c81611b20565b9050919050565b7f4163636573732044656e6965643a204f6e6c792041646d696e206f722052656760008201527f6973746572656420486f73706974616c00000000000000000000000000000000602082015250565b6000611bbf6030836116fb565b9150611bca82611b63565b604082019050919050565b60006020820190508181036000830152611bee81611bb2565b9050919050565b7f50617469656e7420697320616c72656164792072656769737465726564000000600082015250565b6000611c2b601d836116fb565b9150611c3682611bf5565b602082019050919050565b60006020820190508181036000830152611c5a81611c1e565b9050919050565b60008190508160005260206000209050919050565b60006020601f8301049050919050565b600082821b905092915050565b600060088302611cc37fffffffffffffffffffffffffffffffffffffffffffffffffffffffffffffffff82611c86565b611ccd8683611c86565b95508019841693508086168417925050509392505050565b6000819050919050565b6000611d0a611d05611d0084611a07565b611ce5565b611a07565b9050919050565b6000819050919050565b611d2483611cef565b611d38611d3082611d11565b848454611c93565b825550505050565b600090565b611d4d611d40565b611d58818484611d1b565b505050565b5b81811015611d7c57611d71600082611d45565b600181019050611d5e565b5050565b601f821115611dc157611d9281611c61565b611d9b84611c76565b81016020851015611daa578190505b611dbe611db685611c76565b830182611d5d565b50505b505050565b600082821c905092915050565b6000611de460001984600802611dc6565b1980831691505092915050565b6000611dfd8383611dd3565b9150826002028217905092915050565b611e16826116f0565b67ffffffffffffffff811115611e2f57611e2e6117e4565b5b611e398254611ac6565b611e44828285611d80565b600060209050601f831160018114611e775760008415611e65578287015190505b611e6f8582611df1565b865550611ed7565b601f198416611e8586611c61565b60005b82811015611ead57848901518255600182019150602085019450602081019050611e88565b86831015611eca5784890151611ec6601f891682611dd3565b8355505b6001600288020188555050505b505050505050565b7f4e487b7100000000000000000000000000000000000000000000000000000000600052601160045260246000fd5b6000611f1982611a07565b91507fffffffffffffffffffffffffffffffffffffffffffffffffffffffffffffffff8203611f4b57611f4a611edf565b5b600182019050919050565b7f70656e64696e6700000000000000000000000000000000000000000000000000600082015250565b6000611f8c6007836116fb565b9150611f9782611f56565b602082019050919050565b6000604082019050611fb760008301846116e1565b8181036020830152611fc881611f7f565b905092915050565b7f4163636573732044656e6965643a204f6e6c792041646d696e00000000000000600082015250565b60006120066019836116fb565b915061201182611fd0565b602082019050919050565b6000602082019050818103600083015261203581611ff9565b9050919050565b7f50617469656e74206973206e6f74207265676973746572656400000000000000600082015250565b60006120726019836116fb565b915061207d8261203c565b602082019050919050565b600060208201905081810360008301526120a181612065565b9050919050565b60006120b382611a07565b9150600082036120c6576120c5611edf565b5b600182039050919050565b7f486f73706974616c20697320616c726561647920726567697374657265640000600082015250565b6000612107601e836116fb565b9150612112826120d1565b602082019050919050565b60006020820190508181036000830152612136816120fa565b9050919050565b600060608201905081810360008301526121578186611747565b9050818103602083015261216b8185611747565b9050818103604083015261217f8184611747565b9050949350505050565b7f50617469656e74206e6f74207265676973746572656400000000000000000000600082015250565b60006121bf6016836116fb565b91506121ca82612189565b602082019050919050565b600060208201905081810360008301526121ee816121b2565b905091905056fea26469706673582212200c77c8c5cc4fc526591f5d403d232f0b5410f9bffda5895dcbdb2a4a96a703e864736f6c634300081a0033",
  "linkReferences": {},
  "deployedLinkReferences": {}
}